:020000040800F2
:10000000B0060020A901000805240008A522000868
:100010000124000879170008E33000080000000000
:100020000000000000000000000000007D28000823
:10003000F11D0008000000006D270008E52C0008F5
:10004000C3010008C3010008C3010008C301000880
:10005000C3010008C3010008C3010008C301000870
:10006000C3010008C3010008C3010008C301000860
:10007000C3010008C3010008C3010008C301000850
:10008000C3010008C3010008C3010008C301000840
:10009000C3010008C3010008C3010008C301000830
:1000A000C3010008C3010008C3010008C301000820
:1000B000C3010008C3010008C3010008C301000810
:1000C000C3010008C3010008C3010008C301000800
:1000D000C3010008D12E0008C3010008C3010008B5
:1000E000C3010008C3010008C301000800F002F8C2
:1000F00000F04AF80AA090E8000C82448344AAF178
:100100000107DA4501D100F03FF8AFF2090EBAE875
:100110000F0013F0010F18BFFB1A43F0010318473B
:10012000A8410000C8410000103A24BF78C878C137
:10013000FAD8520724BF30C830C144BF04680C60ED
:10014000704700000023002400250026103A28BF35
:1001500078C1FBD8520728BF30C148BF0B60704739
:10016000662903F06485642900F07C8000207047D4
:100170001FB500F001FC04000020002103F068F826
:10018000E0601FBD10B510BD00F0F6FC1146FFF792
:10019000EFFF03F023F800F014FD03B4FFF7F2FFC4
:1001A00003BC00F057FD000009488047094800479C
:1001B000FEE7FEE7FEE7FEE7FEE7FEE7FEE7FEE717
:1001C000FEE7FEE704480549054A064B7047000074
:1001D000E92C0008ED000008B0000020B006002067
:1001E000B0020020B00200200FB41CB5084B06AAD4
:1001F0007B4469460090059800F0A5FB044600206A
:10020000694600F0B3FB20461CBC5DF814FB0000FF
:100210007907000070B5044685690068C10601D5FC
:10022000302600E02026C00707D070BDD4E90121A8
:1002300030469047206A401C20626D1EF6D570BD86
:1002400070B5044685690078C00707D170BDD4E950
:10025000012120209047206A401C20626D1EF6D5A7
:1002600070BD00002DE9F041064600241068752994
:10027000314616A510D0AFF30080002802DA4042C4
:1002800013A507E031688A0701D512A502E04907E6
:1002900004D511A5012401E0AFF3008000210A225A
:1002A00006F1240709E0B0FBF2FCB0FBF2F302FB1D
:1002B0001C00303078541846491C0028F3D12346DE
:1002C0002A463046BDE8F04100F0CFB800000000FB
:1002D0002D0000002B000000200000002DE9F05F41
:1002E000894604464FF0000ADFF874B1FB44C0F8B9
:1002F00020A02046E1688847002874D0252806D031
:10030000D4E901219047206A401C2062F1E70026D1
:100310005F462046E16888472028054607DB312DE7
:1003200005D2781910F8200C08B10643F1E7B007A0
:1003300001D526F00406C4F81CA00027C4F818A0B4
:100340002A2D09D0284602F041FF38B304EB870874
:10035000303DC8F8185019E059F8041B204604EB4A
:1003600087029161E1688847012F054618D1E0694D
:10037000002820DA26F020061DE0D8F8180000EB4F
:10038000800005EB40003038C8F818002046E168CE
:100390008847054602F01AFF0028EED1012F0AD047
:1003A0002E2D08D12046E16888477F1C0546022F84
:1003B00046F02006C4DBA069002803DA404246F07C
:1003C0000106A061F00701D026F010066C2D0BD0BD
:1003D000682D09D04C2D39D06A2D35D0742D35D0EB
:1003E0007A2D33D016E038E0E1682F462046884762
:1003F000B842054609D16C2F26D04FF48060E168E1
:10040000064320468847054604E06C2F1AD04FF477
:10041000807006430DB3A5F14100192802D820359C
:1004200046F400664A462946204626604E46FFF7B7
:1004300097FE80B101280BD0F61D26F0070000F1D1
:10044000080956E74020E4E78020D8E70020D6E7F7
:1004500006F104094DE7284652E7206ABDE8F09FFF
:10046000323F00007047704770472DE9F0470D4656
:1004700099469246044600F124080168880604D58E
:10048000E06921F01001216000E00120A84201DDB7
:10049000471B00E00027A1697A1902EB0900081A3E
:1004A000A0612078C00602D42046FFF7B3FE0026E4
:1004B00008E0D4E901211AF806009047206A401CA0
:1004C000761C20624E45F4DB2078C0060AD5204613
:1004D000FFF7A0FE06E0D4E9012130209047206A12
:1004E000401C2062381EA7F10107F4DC07E0D4E9C4
:1004F000012118F805009047206A401C2062281E40
:10050000A5F10105F3DC2046FFF79AFE20780006EE
:1005100002D50220BDE8F0870120FBE770472DE9F6
:10052000FF4F0C461E464FF0FF378BB0D2E900015B
:10053000DDF860800A908A46C1F30A5505B93D4648
:10054000002108464FF00000BAF1000F00F440000F
:1005500005DA00EB80004FF4400101EA50004FEA59
:100560009059B9F1010F00DDB9460A9850EA4A00E6
:100570000ED044F61050A5F2FF3545432F14B8F1C4
:10058000000F1ED07542291E1EDDC9F100021CE0BD
:10059000B8F1010F4FF0000001D0302103E0F24329
:1005A00005E02154401CB042FBDB30460022002114
:1005B00021540B99C1F80880C1E900200FB0BDE8B3
:1005C000F08FBD1B6D1CDEE74A4600DA694206A8C3
:1005D00000F05CFA06AB93E8070003AB83E8070082
:1005E00050460A9900F03DFB8DE80700A0F5005049
:1005F0001F3800900398002D0ADD42F21F014A4681
:100600000844002303A90390684600F0A6FD09E012
:10061000A0F500504A461F38002303A903906846FE
:1006200000F0B0FD8DE807000004000C03D04FF08F
:10063000FF30410800E01046B8F1000F03D000225F
:10064000009215461EE0751E05D400F099F930326F
:1006500062556D1EF9D5B3460122084302D000222F
:100660007F1C04E02078302801D100227F1E002A60
:10067000099784D01DE0112D07DA00F081F930329E
:1006800062556D1C50EA0102F5D1084302D0009872
:10069000C8B10EE00021681E05E0235C625C635473
:1006A0002254401E491C8142F7DBAB46A81B401E6A
:1006B0000990002004F80B000B98099AC0F80880F4
:1006C000C0E9002B7AE711264FF0000857E72DE923
:1006D000F04F88460446D21D22F0070191B0D1E9BF
:1006E0000001CDE90A0102F05DFD02460B98C00F42
:1006F00001D02D2007E02068810701D52B2002E0E2
:10070000202101EAC000032A099001D0072A05DB55
:1007100003464146204600F079F90BE12078800637
:1007200001D5E06900E00620B8F1650F814606D0EA
:10073000B8F1660F18D0B8F1670F70D131E0002022
:10074000B9F1110F009001DB112301E009F1010360
:100750000AAA01A90CA8FFF7E2FEDDE90C70002649
:1007600009F10105834647E001204B4600904FF018
:1007700000470AAA01A90CA8FFF7D1FEDDE90DB0D8
:100780000C995D46002610B909F101000D18B9EB6E
:10079000050003D4C0F1FF3609F10105A5EB0900FE
:1007A0002BE0B9F1010F01DA4FF001090020B9F196
:1007B000110F0090484601DD112300E003460AAA0C
:1007C00001A90CA8FFF7ABFEDDE90C704D46002631
:1007D0008346207800070AD4AB4500DA5D4601A8BD
:1007E000012D04DD411911F8011C302907D04F45B6
:1007F00002DA17F1040F04DA012082460FE06D1EC1
:10080000EEE7002F02DCED1B3E4403E0781CA8421B
:1008100000DD7D1CB81B00F1010A4FF00047207875
:10082000000703D4AA4501DB4FF0FF3A0021B7F1DE
:10083000004F0DF143088DF8431024D002202B23E4
:10084000002F01DA7F422D230A21021EA0F10100B0
:1008500000DC5FB197FBF1FC97FBF1F201FB1C7C24
:1008600017460CF1300C08F801CDEEE7A8F10100B5
:1008700003702188090501D5452100E06521A0F11B
:10088000010800F8011C09980FA9A1EB0807FF1D3A
:1008900000B10120411901EBEA70A1693844081A3E
:1008A000401EA0612078C00602D42046FFF7B2FCAB
:1008B000099828B1D4E901219047206A401C2062A0
:1008C0002078C00622D52046FFF7A4FC1EE0002EAB
:1008D00004DBB34502DD01A8805D00E03020D4E9EF
:1008E00001219047206A401C2062761CAAF1010079
:1008F0005FEA000A0AD100F03FF8C0680168405C76
:10090000D4E901219047206A401C2062281EA5F1ED
:100910000105DCDC07E0D4E9012118F8010B904760
:10092000206A401C2062381EA7F10107F3DC204634
:10093000FFF786FC032011B041E6000001694A1C64
:1009400002610878704700B58FB0CDE90131002110
:10095000059105497944CDE9031011466846FFF732
:10096000BDFC0FB000BD0000E5FFFFFF0A6802F804
:10097000010B0A60704700000048704770000020BB
:1009800030B5B0F10A024FEA900E71F100034EEA61
:10099000817EB0EB0E0061EB91014FEA101E4EEA32
:1009A000017E10EB0E0041EB11114FEA102E4EEAC2
:1009B000016E10EB0E0041EB11214FEA104E4EEA92
:1009C000014E10EB0E0041EB1141401841F10001C6
:1009D0004FEAD00040EA41704FEAD10110EB8005A8
:1009E0004FEA810444EA907444EB01046D1944EB2E
:1009F0000404521BA3414FF0000348BF0A3200D544
:100A000030BD401C41F1000130BD00002DE9F04136
:100A10001F46044603260168072A01F4006004DB30
:100A200008B116A505E016A503E008B115A500E07C
:100A300015A521F010002060A069C01EA0610FB1B3
:100A4000401EA0612046FFF7E5FB4FB1D4E901212C
:100A500038469047206A401C2062C01C206206E095
:100A6000206AFAE7D4E9012115F8010B9047761EB8
:100A7000F8D22046FFF7E4FBBDE8F0814E414E007E
:100A80006E616E00494E4600696E66002DE9F047C2
:100A9000814616468AB0354878440DC88DE80D0069
:100AA00032487844801C03AC0DC884E80D0041F640
:100AB0009B300844372190FBF1F290FBF1F5A5F152
:100AC000800501FB12041B3C02D56442012000E0BA
:100AD0000020DFF898A080460027FA44AAF1BE0A59
:100AE0000EE0E0070AD03246684607EB47010123D3
:100AF0000AEB810100F046FB8DE8070064107F1CC3
:100B0000002CEED1194F7F44AE3F19E0E80715D015
:100B100007EB04100DF1180A90E80E008AE80E00A9
:100B2000C068F04201D1981908903246012306A905
:100B300003A800F027FB03AB83E807006D10641CDB
:100B4000002DE3D14FF0010332466946B8F1000FA2
:100B500003A802D000F001FB01E000F013FBC9E99B
:100B60000001C9F808200AB0BDE8F0871438000079
:100B700000487047500000207546FFF7F9FFAE4669
:100B800005006946534620F00700854618B020B599
:100B9000FFF718FBBDE820404FF000064FF00007BC
:100BA0004FF000084FF0000B21F00701AC46ACE815
:100BB000C009ACE8C009ACE8C009ACE8C0098D4682
:100BC000704710B50446AFF300802046BDE81040E2
:100BD000FFF7E3BA4FF0013C50F8042B51F8043B07
:100BE0009A4221D1A2EB0C03934313EACC1317D101
:100BF00050F8042B51F8043B9A4215D1A2EB0C0398
:100C0000934313EACC130BD150F8042B51F8043B57
:100C10009A4209D1A2EB0C03934313EACC13DBD025
:100C20004FF00000704700BFD01A01BAB1FA81F14D
:100C300001F0180122FA01F0CB40C1F12001DBB232
:100C4000C0B2C01A2CFA01F3D11A914311EAC311B0
:100C5000E6D1704701491820ABBEFEE7260002002E
:100C600070475FEA400C08BF91F0000F4FEA8C23F9
:100C70004FEAC12243EA51514FEA1C5018BF00F518
:100C8000F0404FEA300018BF41F000415FEA6C5C71
:100C900000F02980BCF1FF3F08BF40F08040704762
:100CA000130C06BF12044FF0100C4FF0000C130E83
:100CB00004BF12020CF1080C130F04BF12010CF157
:100CC000040C930F04BF92000CF1020CD30F04BF6D
:100CD00052000CF1010C11464FF00002A0F11F0070
:100CE000A0EB0C00704711F0004F08BF704731F0C7
:100CF00000413FF4D5AF0B0C06BF09044FF0100CB8
:100D00004FF0000C0B0E04BF09020CF1080C0B0F86
:100D100004BF09010CF1040C8B0F04BF89000CF116
:100D2000020CCB0F04BF49000CF1010CCCF12003E5
:100D3000A0EB0C0022FA03F302FA0CF241EA0301E1
:100D400000F10100704720F07F4C80EA030023F09F
:100D50007F47ACEB070303F57C5300F0004003F141
:100D6000FF032DE980494FEA154B09B44FEA1443BC
:100D700025EA0B4E24EA03480FF2042606EB13275C
:100D800049083E785FEA320203FB0667C7F50007B1
:100D900007FB06F64FEA54374FEAD64606F102063D
:100DA00007FB066CCCF1005C4FEA1C472CEA074CB1
:100DB00007FB06F40CFB06F504EB15464FEA961606
:100DC00034BF00204FF000404FEAD13706FB07FC4C
:100DD0004FEA1C4C0CFB0BF7D21B03FB0CF761EB2F
:100DE00007010CFB0EF7B0EB074072EB17420CFB50
:100DF00008F734BFA2EB0742B2EB074261EB1741A1
:100E00004FEA0C444FEA910706FB07FC4FEA1C4CE3
:100E10000CFB0BF7B0EBC74072EB573203FB0CF740
:100E200034BFA2EBC742B2EBC74261EB57310CFBB8
:100E30000EF7B0EBC70072EB57720CFB08F734BF2C
:100E4000A2EBC702B2EBC70261EB5771039F4FEAF7
:100E5000816141EA921104EBCC044FEAD1374FEAA9
:100E6000826206FB07FC42EA90124FEA80604FEA7A
:100E70001C4C0CFB0BF7D21B03FB0CF761EB0701BF
:100E80000CFB0EF7B0EB074072EB17420CFB08F7B8
:100E900034BFA2EB0742B2EB074261EB17414FEAC6
:100EA0008C554FEA910704EB9C2406FB07FC4FEAA4
:100EB0001C4C0CFB0BF7B0EBC74072EB573203FB3B
:100EC0000CF734BFA2EBC742B2EBC74261EB57311C
:100ED0000CFB0EF7B0EBC70072EB57720CFB08F778
:100EE00034BFA2EBC702B2EBC70261EB577115EB3F
:100EF0004C254FEA816141EA92114FEA82624FEA42
:100F0000D13742EA901206FB07FC44F100044FEA95
:100F100080604FEA1C4C0CFB0BF7D21B03FB0CF759
:100F200061EB07010CFB0EF7B0EB074072EB1742C9
:100F30000CFB08F734BFA2EB0742B2EB074261EBB0
:100F4000174115EB1C154FEA813141EA92414FEAF6
:100F5000823242EA90424FEA80304FEA0C7644F106
:100F6000000448EA03434EEA0B484FF0000EB2EB90
:100F7000080C71EB030724BF624639464EEB0E0E98
:100F80004FF0000B0018524149414BEB0B0BB2EBF9
:100F9000080C71EB03077BF1000B24BF6246394656
:100FA0004EEB0E0E4FF0000B0018524149414BEB37
:100FB0000B0BB2EB080C71EB03077BF1000B24BFAA
:100FC000624639464EEB0E0E51EA020718BF46F054
:100FD000010616EB0E7655F1000254F1000103D51F
:100FE000BDE88901BDE80088BDE88901BDE8004889
:100FF000B619524141EB0101A3F101037047808012
:101000007F7E7D7C7B7A7978777676757473727162
:1010100071706F6E6E6D6C6C6B6A6A69686867661A
:1010200066656464636362616160605F5F5E5E5DAC
:101030005D5C5C5B5B5A5A59595858575756565520
:1010400055555454535352525251515050504F4F82
:101050004F4E4E4D4D4D4C4C4C4B4B4B4A4A4A49D2
:101060004949484848474747474646464545454415
:101070004444444343434342424242414141002BA2
:101080009C4630D477002BD01CB54FEA370703B409
:101090004FF010004FF01001BAF1000F06D0BCF174
:1010A000000FDCBF40F0080040F008014FF00000E6
:1010B0000FBCBDE810400BF1010BBBF1010F08BFE5
:1010C0005FEA170722BF12F1010211F101014FF08F
:1010D000004143F1000300F0004043EA0000704784
:1010E000F9D35708D0E746EA064613F1400F4FEA16
:1010F00016461FDD13F1200FDFBF16430A460021FD
:1011000020335B42BED0C3F1200746EA064602FA0E
:1011100007F74FEA164646EA0706C3F1200722FA08
:1011200003F201FA07F721FA03F14FF0000342EA54
:101130000702A7E746EA020646EA06464FEA1646CF
:1011400046EA0106BCBF46EA0646360C4FF00003ED
:101150004FF000024FF0000194E72DE9804C9A46D1
:10116000934670B491E8380007C831EA400C48BF94
:1011700034EA430C03D5FFF7E6FDFFF780FFF0BC30
:10118000BDE8008C2DE9804C9A46934670B491E8F6
:10119000380007C810F0804F08BF13F0804F03D10C
:1011A00000F005F8FFF76BFFF0BCBDE8008C20F005
:1011B0007F4780EA030023F07F4C07EB0C03A3F585
:1011C0007C5300F00040A3F1FE0392F0000F00F00A
:1011D000B38095F0000F00F077802DE901494FEAC8
:1011E00011404FEA144621EA004800FB06FC24EABD
:1011F000064708FB06F607FB08F800FB07F718EBA5
:1012000006484CEB164C4FEA124B18EB07484FEAD6
:1012100015464CEB174022EA0B4E0BFB06FC25EA69
:1012200006470EFB06F607FB0EFE0BFB07F71EEB51
:10123000064E4CEB164C4FF000061EEB074E4CEBE7
:10124000174B18EB0B0840F1000018EB0E0B58EB96
:10125000000840F100008F1A4FF000013CBFC94365
:10126000661B14BFB5EB040C00213CBFC943F61B41
:101270004FEA17444EEA8E0E27EA04454FEA1C4710
:1012800004FB07622CEA074C05FB07F70CFB05F68D
:1012900004FB0CFC16EB074642EB174216EB0C4620
:1012A00042EB1C421BEB060658EB0202414146EAA8
:1012B0009E0601D5BDE80189B619524141EB0101F5
:1012C000A3F10103BDE801894FEA14454FEA114734
:1012D00024EA054621EA074C05FB07F406FB07F75D
:1012E0000CFB06F105FB0CFC11EB074144EB17442A
:1012F0004FEA124711EB0C4144EB1C4422EA074C25
:1013000005FB07F206FB07F70CFB06F605FB0CFCDA
:1013100016EB074642EB174216EB0C4642EB1C4518
:101320006A1854F1000148BF7047B619524141EBA9
:101330000101A3F10103704795F0000F37D04FEA88
:1013400011424FEA144721EA024624EA074C02FB05
:1013500007F106FB07F70CFB06F402FB0CFC14EB91
:10136000074441EB17414FEA154714EB0C4441EB9E
:101370001C4125EA074C02FB07F506FB07F70CFBAF
:1013800006F602FB0CFC16EB074645EB174516EB81
:101390000C4645EB1C42121951F1000148BF704741
:1013A000B619524141EB0101A3F1010370474FEA25
:1013B00014454FEA114724EA054621EA074C05FB8C
:1013C00007F106FB07F70CFB06F24FF0000605FBE2
:1013D0000CFC12EB074241EB174112EB0C4251EBB4
:1013E0001C4148BF7047921841EB0101A3F1010372
:1013F000704721B1826842F00102826003E0826896
:1014000022F0010282607047014600208A6802F0E3
:1014100004020AB1012000E0002070470146C86CB8
:1014200080B270470246002013680B400BB10120C8
:1014300000E000207047014600208A6802F00802A0
:101440000AB1012000E000207047000030B50246DC
:101450000020002350680F4C20400D790C6844EAAE
:1014600005242043506090680B4C2040D1E9025481
:101470002C434D7944EA450420439060D06A20F41F
:1014800070000C7C641EE4B2234340EA0350D06237
:1014900030BD0000FFFEF0FFFDF7F1FFF0B50446A0
:1014A0000D4600200021092D11DDE068A5F10A0696
:1014B00006EB4607072606FA07F18843A5F10A0658
:1014C00006EB460603FA06F10843E0600CE02069EB
:1014D00005EB4507072606FA07F1884305EB4506A5
:1014E00003FA06F108432061072A0FDA606B561EE3
:1014F00006EB86071F2606FA07F18843561E06EB01
:10150000860605FA06F10843606322E00D2A0FDA29
:10151000206BD61F06EB86071F2606FA07F18843C5
:10152000D61F06EB860605FA06F10843206310E095
:10153000E06AA2F10D0606EB86071F2606FA07F100
:101540008843A2F10D0606EB860605FA06F108436C
:10155000E062F0BD816841F008018160704721B10F
:10156000826842F4A002826003E0826822F4A00252
:1015700082607047816841F004018160704700001B
:1015800008B50121042001F0FFF80420ADF80000A7
:1015900010208DF8030003208DF8020069460448EE
:1015A00000F0DAFD0421024800F075FE08BD0000DD
:1015B0000008014010B500F005F90421014800F0D1
:1015C00068FE10BD000801402DE9F84381460C4635
:1015D00015461E4600200090484602F08FF9074647
:1015E0000022294B02F06AF801D2012000E000201D
:1015F0008DF80100204602F081F907460022234BB6
:1016000002F05CF801D2012000E000208DF8020019
:10161000B5F5487F0CDD01208DF800001C480078EE
:1016200098B91CA001F0DCFA0120194908700CE0FF
:1016300000208DF8000016480078012805D11DA073
:1016400001F0CEFA00201249087066B901208DF829
:1016500003001E48007898B91DA001F0C1FA0120CE
:101660001A4908700CE000208DF803001748007834
:10167000012805D11FA001F0B3FA0020134908701A
:101680000098BDE8F883000000003E40004055404F
:1016900024000020576174657220416C61726D21D5
:1016A000204C6576656C20746F6F20686967680DE3
:1016B0000A0000005761746572204C6576656C20E5
:1016C0004E6F726D616C0D0A000000002500002055
:1016D0004C6967687420416C61726D2120456E769B
:1016E00069726F6E6D656E7420746F6F20646172C5
:1016F0006B0D0A004C69676874204E6F726D616CE7
:101700000D0A000010B500F053F80421014800F064
:10171000C2FD10BD0008014010B5FFF731FFFFF713
:10172000F1FF10BD10B586B001F016FB012821D1E4
:1017300003A801F0A5F89DF81630BDF81420DDE9E6
:101740000301FFF741FF02909DF80B309DF80A203E
:101750009DF809109DF8080001F0A8FB684601F00B
:10176000F3FA9DF8040010B1FFF724FF01E0FFF742
:10177000C9FF00BF06B010BD00BFFEE708B50121DC
:10178000082001F001F810208DF803000002ADF8E8
:10179000000003208DF802006946044800F0DCFCDC
:1017A0004FF48051014800F076FD08BD000C014067
:1017B00010B54FF48051024800F06DFD10BD0000DF
:1017C000000C014010B54FF48051024800F061FD5B
:1017D00010BD0000000C014010B506A001F000FA99
:1017E0000EA001F0FDF903A001F0FAF900F0B8F83D
:1017F00010BD00003D3D3D3D3D3D3D3D3D3D3D3D40
:101800003D3D3D3D3D3D3D3D3D3D3D3D3D3D3D3D08
:101810003D3D3D3D3D3D3D3D3D0D0A0053656E73F3
:101820006F72204D6F6E69746F7220537973746597
:101830006D2052656164790D0A0000003EB50446D2
:10184000204601F087F96C2C30D004DC302C07D016
:10185000312C48D10AE0732C42D0772C43D10BE0D5
:1018600001F006FB22A001F0BBF93FE001F0E8FA2D
:1018700023A001F0B5F939E001F06EFA012811D189
:10188000684600F0FDFF21A001F0AAF9BDF80800AC
:1018900002F088F80546002101F06CF91FA001F064
:1018A0009FF902E020A001F09BF91FE001F054FA3B
:1018B000012811D1684600F0E3FF1FA001F090F964
:1018C0009DF80A0002F06EF80546002101F052F979
:1018D0001DA001F085F902E013A001F081F905E0F7
:1018E00000F098F802E000F03BF800BF00BF3EBDFA
:1018F00053797374656D204F46460D0A0000000051
:1019000053797374656D204F4E0D0A0057617465ED
:1019100072204C6576656C3A20000000202F203440
:101920003039350D0A00000053797374656D2069F4
:1019300073204F46460D0A004C6967687420537443
:101940006174653A200000002028303D4461726BCC
:101950002C20313D427269676874290D0A0000002D
:1019600010B50BA001F03CF90CA001F039F910A062
:1019700001F036F913A001F033F917A001F030F9A6
:101980001AA001F02DF91FA001F02AF910BD0000E6
:10199000436F6D6D616E64733A0D0A002020302034
:1019A0003D2053797374656D204F46460D0A000043
:1019B000202031203D2053797374656D204F4E0DEA
:1019C0000A000000202077203D20576174657220B6
:1019D0004C6576656C0D0A0020206C203D204C691A
:1019E0006768742053746174650D0A0020207320A9
:1019F0003D2053797374656D205374617475730D54
:101A00000A000000202068203D2048656C700D0A07
:101A10000000000010B586B04BA001F0E1F850A026
:101A200001F0DEF801F098F9012801D14FA000E0A3
:101A300050A0044601F0D4F801F08EF9012878D1C5
:101A400003A800F01DFF01A801F07EF94BA001F0F2
:101A5000C7F89DF8170000282CD04BA001F0C0F863
:101A60000121039801F086F84AA001F0B9F89DF829
:101A7000051009B148A100E049A1084601F0B0F8FD
:101A800049A001F0ADF849A001F0AAF8012104989D
:101A900001F070F848A001F0A3F89DF8061009B114
:101AA0003DA100E03EA1084601F09AF83EA001F0F9
:101AB00097F802E041A001F093F848A001F090F8F7
:101AC0009DF8160001F06EFF0446002101F052F867
:101AD00045A001F085F89DF8071009B12EA100E09E
:101AE0002FA1084601F07CF82FA001F079F83FA063
:101AF00001F076F8BDF8140001F054FF044600210F
:101B000001F038F838A001F06BF89DF8041009B125
:101B100021A100E022A1084601F062F822A001F014
:101B20005FF835A001F05CF89DF8081011B136A1FE
:101B300001E007E036A1084601F052F811A001F0DB
:101B40004FF800BF06B010BD3D3D3D205379737482
:101B5000656D20537461747573203D3D3D0D0A0021
:101B600053797374656D3A20000000004F4E0D0AE2
:101B7000000000004F46460D0A00000053656E73DA
:101B80006F72733A0D0A0000202054656D703A2080
:101B90000000000043202800414C41524D0000004D
:101BA0004E6F726D616C0000290D0A00202048758F
:101BB0006D693A200000000025202800202054658F
:101BC0006D702F48756D693A204E6F7420417661B3
:101BD000696C61626C650D0A0000000020204C6990
:101BE0006768743A20000000202800002020576118
:101BF0007465723A200000004F766572616C6C204B
:101C0000416C61726D3A20004143544956450000D1
:101C1000496E6163746976650000000010B5044682
:101C20004FF48040034908800846C470024800F021
:101C300093FA10BD16000020000C01402DE9F0477A
:101C400005464FF00009C846002400260027102052
:101C5000FFF7E4FF4FF48041574800F01AFB1420CF
:101C600000F0C7F84FF48041534800F014FB1E20E9
:101C700000F0CBF872B64820FFF7D0FF00240BE04D
:101C8000601C84B2012000F0C0F8C82C04DD62B6EC
:101C90004FF0FF30BDE8F0874FF48041464800F038
:101CA000E6FA0128ECD000240AE0601C84B201208E
:101CB00000F0ABF8C82C03DD62B66FF00100E9E775
:101CC0004FF480413C4800F0D2FA0028EDD00024C7
:101CD0000AE0601C84B2012000F097F8C82C03DDF4
:101CE00062B66FF00200D5E74FF48041324800F051
:101CF000BEFA0128EDD0002640E04FF00008002792
:101D000037E000240AE0601C84B2012000F07DF876
:101D1000C82C03DD62B66FF00300BBE74FF48041CF
:101D2000254800F0A4FA0028EDD0322000F06DF82C
:101D30004FF48041204800F09AFA012818D1C7F1E9
:101D40000701884040EA080000F0FF08002407E08F
:101D5000601C84B2012000F058F8C82C00DD06E0B9
:101D60004FF48041144800F082FA0128F0D000BFFF
:101D70007F1C082FC5DB05F80680761C052EBCDB12
:101D800062B6287869780844A9780844E97800EBB5
:101D90000109287909F0FF01884202D06FF00400A0
:101DA00078E71020FFF73AFF4FF48041024800F037
:101DB00072FA00206EE70000000C014010B501210E
:101DC000082000F0E1FC4FF4804007490880032020
:101DD00088701020C870054800F0BEF94FF48041AB
:101DE000024800F058FA10BD16000020000C014017
:101DF000704700B5034603E04FF47A7000F005F831
:101E0000181EA3F10103F7D100BD00EBC001C9000A
:101E10004FF0E0225161002191610521116100BF65
:101E20004FF0E021096901F480310029F8D0042144
:101E30004FF0E0221161704710B500F0C1FB00F0D7
:101E400025FB00F04DF810BD3EB514480068401C5D
:101E5000124908601248006830B10846006810490D
:101E60000968401A142818D90C4800680C49086001
:101E700000F072FF01280ED1684600F001FD9DF8C8
:101E80000B0038B19DF80A30BDF80820DDE90001EB
:101E900000F05CF801E000F023F83EBD20000020D7
:101EA0001C00002010B50AA20121084600F02AFCFF
:101EB00008A20121022000F025FC07A20121032035
:101EC00000F020FC05A20121042000F01BFC10BD45
:101ED000543A0000483A00004C3A0000573A0000DB
:101EE00010B50AA20121084600F00CFC0BA201214A
:101EF000022000F007FC0DA20121032000F002FCEB
:101F00000EA20121042000F0FDFB10BD543A2D2D3E
:101F10002E2D43202020202020200000483A2D2D67
:101F20002E2D252020202020202000004C3A2D2D71
:101F30002D2020202020202020200000573A2D2D69
:101F40002D2D202020202020202000002DE9F04FE2
:101F500085B004460D46164699460021204601F0FC
:101F600035FE16D85F49204601F064FD824601F037
:101F7000FDFC0A2190FBF1F201FB1207204601F063
:101F8000F5FC80463B46424657A16846FEF72CF9D1
:101F900018E084F000475349384601F04BFD834672
:101FA00001F0E4FC0A2190FBF1F201FB1208384633
:101FB00001F0DCFC8246434652464EA16846FEF7DD
:101FC00013F900BF4EA20121084600F09BFB6A46B0
:101FD0000321012000F096FB204601F08FFC07460C
:101FE0000022484B01F06AFB05D247A209210120DB
:101FF00000F088FB04E046A20921012000F082FBEA
:102000003849284601F016FD824601F0AFFC0A214E
:1020100090FBF1F201FB1207284601F0A7FC804675
:102020003B4642463CA16846FEF7DEF83DA2012150
:10203000022000F067FB6A460321022000F062FBE9
:10204000284601F05BFC07460022374B01F036FBC7
:1020500005D22DA20921022000F054FB04E02CA29D
:102060000921022000F04EFB30A20121032000F0E4
:1020700049FBB9F1000F0AD12DA20321084600F057
:1020800041FB2DA20921032000F03CFB09E02CA21A
:102090000321084600F036FB1DA20921032000F0B1
:1020A00031FB324628A16846FEF79EF827A201219F
:1020B000042000F027FB6A460321042000F022FBE5
:1020C000B6F5487F05DD22A20921042000F01AFBA5
:1020D00004E00FA20921042000F014FB05B0BDE8C4
:1020E000F08F0000000020412532642E253164432A
:1020F000000000002D2531642E25316443000000CE
:10210000543A000000003E40484947482020000063
:1021100020202020202000002532642E2531642537
:1021200025000000483A0000004055404C3A0000AD
:102130004441524B20200000414C41524D210000AF
:10214000425249474854000025346400573A000081
:1021500048494748212000002DE9F041024600256A
:102160000026002000230024002791F803C00CF073
:102170000F0591F803C00CF0100CBCF1000F03D058
:1021800091F802C04CEA050591F800C0BCF1000FBF
:1021900031D0146800202BE04FF0010C0CFA00F352
:1021A000B1F800C00CEA03069E4220D183004FF034
:1021B0000F0C0CFA03F7BC4305FA03FC4CEA0404C9
:1021C00091F803C0BCF1280F06D14FF0010C0CFAB6
:1021D00000FCC2F814C00AE091F803C0BCF1480F3B
:1021E00005D14FF0010C0CFA00FCC2F810C0401CE5
:1021F0000828D1D31460B1F800C0BCF1FF0F34DD62
:10220000546800202EE000F1080C4FF0010808FA95
:102210000CF3B1F800C00CEA03069E4221D1830002
:102220004FF00F0C0CFA03F7BC4305FA03FC4CEA21
:10223000040491F803C0BCF1280F05D100F1080C8B
:1022400008FA0CF8C2F8148091F803C0BCF1480FEA
:1022500007D100F1080C4FF0010808FA0CF8C2F899
:102260001080401C0828CED35460BDE8F08102469F
:10227000002093680B400BB1012000E00020704764
:1022800002460020D3680B400BB1012000E0002083
:10229000704741617047016170470AB1016100E018
:1022A0004161704700BFFEE710B5002402211448C9
:1022B000FFF7DDFF68B91420FFF79BFD00BF022187
:1022C0000F48FFF7D4FF0028F9D01420FFF791FD45
:1022D00001244FF400610A48FFF7C9FF70B91420C8
:1022E000FFF787FD00BF4FF400610548FFF7BFFF10
:1022F0000028F8D01420FFF77CFD0224204610BDF2
:10230000000C014008B50121082000F03DFA4820EA
:102310008DF8030040F60200ADF8000003208DF8B0
:10232000020069460148FFF717FF08BD000C014095
:1023300010B502210148FFF7AEFF10BD00080140B3
:1023400010B502210148FFF7A4FF10BD00080140AD
:1023500010B504210148FFF79EFF10BD00080140A1
:1023600010B504210648FFF78BFF20B9042104486B
:10237000FFF791FF03E004210148FFF78AFF10BD3A
:102380000008014008B50121042000F0FDF91020EB
:102390008DF803000620ADF8000003208DF8020040
:1023A00069460448FFF7D8FE06210248FFF773FF8D
:1023B00008BD00000008014010B54FF4005104486A
:1023C000FFF755FF08B9012010BD0020FCE7000011
:1023D000000C014008B50121082000F0D5F9482083
:1023E0008DF803004FF40050ADF8000003208DF885
:1023F000020069460148FFF7AFFE08BD000C01402E
:1024000000BFFEE77047000070B5002100230F22D7
:10241000C47804B3154C246804F4E064C4F5E064A3
:10242000210AC1F10403CA40447804FA03F1847814
:102430001440214309010E4C0678A155047804F09C
:102440001F050124AC4005786D11AD0005F1E025B4
:10245000C5F8004109E0047804F01F050124AC40F0
:10246000044D0678761145F8264070BD0CED00E06D
:1024700000E400E080E100E002490143024A11600B
:10248000704700000000FA050CED00E070B5002474
:102490000EE00021204600F0EAF8002504E00020CC
:1024A00000F054F9681CC5B2802DF8DB601CC4B282
:1024B000082CEEDB70BD000008B50121082000F0FB
:1024C00063F914208DF8030003208DF802004FF407
:1024D0008070ADF8000069460A48FFF73DFE4FF4F2
:1024E0000070ADF8000069460648FFF735FE01228E
:1024F00011020448FFF7D1FE012251020148FFF703
:10250000CCFE08BD000C014070B50546002419E062
:1025100080202041284008B1012000E00020024630
:102520004FF400710E48FFF7B8FE012211020C486B
:10253000FFF7B3FE00224FF480710948FFF7ADFEAC
:10254000601CC4B2082CE3DB012211020448FFF72F
:10255000A4FE00224FF480710148FFF79EFE70BD7B
:10256000000C014010B5012251020A48FFF795FE08
:10257000012211020748FFF790FE00224FF400717C
:102580000448FFF78AFE00224FF480710148FFF7EC
:1025900084FE10BD000C014010B500224FF4007104
:1025A0000648FFF77AFE012211020448FFF775FE84
:1025B000012251020148FFF770FE10BD000C0140DE
:1025C00070B5002406E0002500E06D1CB5F57A7FAB
:1025D000FBD3641CB4F57A7FF5D3FFF76DFFAE2013
:1025E00000F0A4F8D52000F0A1F8802000F09EF8BB
:1025F000A82000F09BF83F2000F098F8D32000F0CE
:1026000095F8002000F092F8402000F08FF8A1200B
:1026100000F08CF8C82000F089F8DA2000F086F885
:10262000122000F083F8812000F080F8CF2000F025
:102630007DF8D92000F07AF8F12000F077F8DB205F
:1026400000F074F8302000F071F8A42000F06EF86B
:10265000A62000F06BF88D2000F068F8142000F040
:1026600065F8AF2000F062F8FFF710FF70BD70B59D
:1026700005460C4645F0B00000F058F8102141EA3C
:10268000141000F053F804F00F0000F04FF870BD84
:102690002DE9F04105460E461746721ED206110E70
:1026A0006A1E5206100EFFF7E2FF002409E0A7F1B0
:1026B0002001134A02EB0111085D00F047F8601C8D
:1026C000C4B2082CF3DB721ED206110E6A1E01235F
:1026D00003EB4202D0B2FFF7CAFF00240BE0A7F1E0
:1026E0002001074A02EB011204F10801505C00F0DE
:1026F0002DF8601CC4B2082CF1DBBDE8F0810000AD
:10270000323C00082DE9F04107460E4615460024EC
:1027100007E02A5D3019C1B23846FFF7B9FF601CE7
:10272000C4B2285D0028F4D1BDE8F08110B504469C
:10273000FFF718FF7820FFF7E7FE0020FFF7E4FE21
:102740002046FFF7E1FEFFF727FF10BD10B5044656
:10275000FFF708FF7820FFF7D7FE4020FFF7D4FEF1
:102760002046FFF7D1FEFFF717FF10BD70470000AE
:1027700001460020034A506820F44040084350605E
:10278000704700000010024029B1064A92690243D6
:10279000044B9A6104E0034A92698243014B9A61B7
:1027A000704700000010024030B5002100220024D4
:1027B00000232D4D6D6805F00C0121B1042905D0D1
:1027C000082923D105E0294D056022E0274D056049
:1027D0001FE0254D6D6805F47012234D6D6805F4FA
:1027E0008034022505EB92421CB9214D554305600A
:1027F0000BE01D4D6D6805F400351DB11C4D5543B2
:10280000056002E0194D5543056002E0174D056073
:1028100000BF00BF144D6D6805F0F0010909154DAA
:102820006B5C0568DD4045600F4D6D6805F4E06147
:10283000090A104D6B5C4568DD4085600A4D6D6886
:1028400005F46051C90A0B4D6B5C4568DD40C560FD
:10285000054D6D6805F44041890B074D6B5CC568FB
:10286000B5FBF3F5056130BD0010024000127A009F
:1028700000093D000000002010000020704700000B
:10288000024B0ECB80E80E00704700004400002091
:1028900010B5FFF793FA00F041FCFFF79BFD002015
:1028A00003490860486008818872C87210BD000042
:1028B0004400002010B524480068401C22490860EC
:1028C0002248006830B10846006820490968401A6B
:1028D000282811D91C4800681C4908601C49081F99
:1028E00000F03CF820B101201949091FC87203E02B
:1028F00000201749091FC8721648006830B11248F5
:10290000006814490968401A142808D90E4800685C
:102910001049086000F0AAF80D49091F08810E4807
:10292000006830B1084800680B490968401A0A2855
:1029300008D9054800680849086000F093F8044980
:10294000091F887210BD00003400002028000020FC
:10295000480000202C000020300000202DE9F04F1E
:1029600087B00446894605A8FFF768F904900498E3
:10297000002870D19DF8150001F014F8019000F0C6
:10298000BDFF364A364BCDE9020100F099FD0746FE
:1029900088469DF8140001F005F8039000F0AEFFA2
:1029A00082463A46434600F09BFC054600F066FC32
:1029B000C9F800009DF8160000F0800038B39DF8BB
:1029C000160000F07F008DF816009DF8170000F04B
:1029D000E9FF019000F092FF0746204A204B00F0EB
:1029E0006FFD05460E469DF8160000F0DBFF80F0F7
:1029F0000047384600F082FF2A463346CDE90201FF
:102A000000F092FE824600F039FC20601EE09DF846
:102A1000170000F0C7FF019000F070FF0F4A104B45
:102A2000CDE9020100F04CFD82468B469DF8160070
:102A300000F0B8FF039000F061FF054652465B4688
:102A400000F04EFC074600F019FC2060012007B0A2
:102A5000BDE8F08FFFE70020F9E700009A99999907
:102A60009999B93F10B5FFF7A7FC10BD10B500F05C
:102A70003BFB10BD014800787047000014000020A7
:102A800005480078012804D100200349087001207E
:102A900070470020FCE700001500002000B587B05B
:102AA00001218803FFF770FE01210420FFF76CFE6F
:102AB00018208DF81B004FF40070ADF818000320AB
:102AC0008DF81A0006A92148FFF746FB48208DF82B
:102AD0001B004FF48060ADF8180003208DF81A0039
:102AE00006A91A48FFF738FB4FF416500290002051
:102AF000ADF814000C20ADF812000020ADF8100065
:102B0000ADF80E00ADF80C0002A9114800F074FAFF
:102B1000012240F225510E4800F048FA4FF4A0601F
:102B2000FFF7AAFC25208DF8040001208DF807008E
:102B30008DF805008DF8060001A8FFF765FC01215E
:102B4000034800F0F0F907B000BD000000080140A4
:102B50000038014010B504462146054800F0BDFA92
:102B600000BF8021024800F0EAF90028F9D010BD2A
:102B700000380140F0B585B005460C464CB92846F2
:102B800000F0F4FE0646324610A16846FDF72CFB25
:102B900016E0012C0AD1284600F0B0FE0646324667
:102BA0000B460BA16846FDF71FFB09E0284600F025
:102BB000A5FE064632460B4607A16846FDF714FB04
:102BC000684600F00DF805B0F0BD00002564000077
:102BD000252E316600000000252E32660000000020
:102BE00070B50446002504E0605DFFF7B3FF681C84
:102BF000C5B2605D0028F7D170BD10B500F002F8D5
:102C000010BD00000CB50020019000903348006812
:102C100040F480303149086000BF3048006800F45B
:102C2000003000900198401C0190009818B901985C
:102C3000B0F5A06FF1D12948006800F4003010B160
:102C40000120009001E0002000900098012843D16D
:102C50002348006840F010002149086008460068D9
:102C600020F0030008600846006840F00200086099
:102C70001A48406819494860084640684860084654
:102C8000406840F4806048600846406820F47C104A
:102C900048600846406840F4E8104860084600680C
:102CA00040F08070086000BF0C48006800F00070C1
:102CB0000028F9D00948406820F00300074948601F
:102CC0000846406840F00200486000BF0348406882
:102CD00000F00C000828F9D10CBD000000100240E3
:102CE000002002407047000010B51348006840F013
:102CF00001001149086008464068104908400E4923
:102D00004860084600680E4908400B4908600846BC
:102D1000006820F4802008600846406820F4FE0027
:102D200048604FF41F008860FFF767FF4FF00060B6
:102D30000449086010BD0000001002400000FFF8C8
:102D4000FFFFF6FE08ED00E002490A68026009791B
:102D50000171704739000020014800787047000079
:102D60003800002010B5002004490870FEF7D4FC9C
:102D7000FFF78EFDFFF760F810BD0000380000205F
:102D800010B508480068401C0649086006480078ED
:102D9000012805D1FFF78EFDFEF7C4FCFFF754F8BC
:102DA00010BD0000400000203800002010B504468F
:102DB000012C10D10F48007828B900F041F80EA07E
:102DC000FFF70EFF04E000F053F812A0FFF708FF32
:102DD000C820FFF70EF8022C0BD106480078012816
:102DE00007D1FFF7BDFA12A0FFF7FAFEC820FFF7E0
:102DF00000F810BD3800002053797374656D204FC2
:102E00004E20284B65792050726573736564290DD7
:102E10000A00000053797374656D204F46462028E0
:102E20004B65792050726573736564290D0A000043
:102E30004C45443220546F67676C65640D0A00008E
:102E400010B50748007848B9012005490870FFF718
:102E500077FAFFF727F803A0FFF7C2FE10BD0000C6
:102E60003800002053797374656D204F4E0D0A00B1
:102E700010B50948007801280DD1002006490870D6
:102E8000FFF756FAFFF764FAFEF73CFCFFF728F865
:102E900002A0FFF7A5FE10BD38000020537973741F
:102EA000656D204F46460D0A0000000030B5074C06
:102EB00020706170A270E37010B909B902B90BB14A
:102EC000012400E00024014D2C7130BD39000020A8
:102ED00010B540F22551094800F03EF801280CD108
:102EE000064800F0F5F80649087001200549087009
:102EF00040F22551014800F007F810BD00380140AC
:102F0000140000201500002010B50022002340F618
:102F10006A14A14200D100BF0A1201249440A3B256
:102F2000DC43048010BD21B1828942F400528281C9
:102F300004E082894DF6FF731A4082817047024691
:102F40000020B1F5007F00D100BF13880B400BB10A
:102F5000012000E00020704770B5024600240023E5
:102F60000025002040F66A16B14200D100BFC1F32F
:102F7000421501F01F03012606FA03F3012D02D1C9
:102F80009689334006E0022D02D1168A334001E0D3
:102F9000968A33400C12012606FA04F4168834404F
:102FA00013B10CB1012000E0002070BDF0B5034664
:102FB000002400260025002040F66A17B94200D1FF
:102FC00000BF1846C1F3421401F01F06012707FA9B
:102FD00006F5012C01D10C3004E0022C01D1103097
:102FE00000E014301AB107682F43076002E0076859
:102FF000AF430760F0BD00002DE9F04786B00546FD
:103000000E460024A24600BFA1460027B08900B1A9
:1030100000BF2F462C8A4CF6FF700440F088044312
:103020002C82AC894EF6F3100440B08831890843F5
:10303000718908430443AC81AC8A4FF6FF400440D9
:10304000B0890443AC8201A8FFF7AEFB1F4887425A
:1030500002D1DDF810A001E0DDF80CA0A88900F491
:10306000004040B10AEBCA0000EB0A103168490089
:10307000B0FBF1F807E00AEBCA0000EB0A10316878
:103080008900B0FBF1F86420B8FBF0F004012009DE
:10309000642101FB1089A88900F4004040B132206E
:1030A00000EBC900B0FBF1F000F00700044308E0BA
:1030B000322000EB09106421B0FBF1F000F00F00AA
:1030C00004432C8106B0BDE8F087000000380140C1
:1030D00001468888C0F308007047C1F30802828067
:1030E000704700BFFEE7000010B505230122032151
:1030F0000948FEF7D3F901210748FEF730FA00BF6F
:1031000002210548FEF78EF90028F9D00248FEF7A3
:1031100085F90446204610BD0024014000B587B063
:1031200001214FF40170FFF72FFB0820ADF81800C4
:1031300000208DF81B0006A91848FFF70DF84FF482
:103140000040FFF715FB002001908DF808008DF876
:1031500009004FF4602003900020049001208DF8B6
:10316000140001A90E48FEF771F901210C48FEF781
:1031700040F90B48FEF7EEF900BF0948FEF75BF98E
:103180000028FAD10648FEF7F5F900BF0448FEF71B
:103190003BF90028FAD107B000BD0000000801404B
:1031A00000240140490050EAC12018BF04204A0D04
:1031B00018BF40F0010040F2FF72B2EB515F08BF50
:1031C00040F00200012808BF0520704730380A2867
:1031D00001D201207047002070470000FFF7D2F8AD
:1031E000FFF790F8FEF7CAFAFFF7F4F8FFF756FC7E
:1031F000FEF7E4FDFFF792FFFFF7B4FDFEF7ECFAF0
:103200000FA201210846FFF77DFA17E0FFF74CF8FF
:10321000044614B12046FFF7C9FDFFF731FC012831
:1032200006D1FFF727FC05462846FEF707FB00BF3F
:10323000FFF7A6FD3220FEF7DCFD00BFE6E7000049
:10324000496E697469616C697A696E672E2E2E0009
:1032500010B500290AD00878002807D0054878441E
:10326000FDF7B8FC002801D0002010BD02487844CA
:1032700010BD00008A1000008210000021F0004202
:10328000A2F16052B2F5801F01F0004328BFD2F1D5
:103290007F6C0BD95FEA001C43EAC20242EB50701C
:1032A00018BF704728BF20F001007047B2F5801F9B
:1032B000BCBF184670474FEA410C1CF5001F02D2F4
:1032C000084600F07EBC70B500F0A4F9000000894B
:1032D000FFF7F6BF4FF00040A0F5800070470000F8
:1032E00010B591EA030F48BF83F0004300F1248238
:1032F000841A71EB030C05D2121943EB0C03001B6B
:1033000061EB0C01DFF824E14FEA1154A4EB135CEC
:103310001EEA430F18BF9EEA445F73D023EA0E03F0
:10332000DCF1200E21EA045143F4801332D322FA57
:103330000CFE10EB0E0023FA0CFE41EB0E01CCF15B
:10334000200E03FA0EFE10EB0E0051F10001B1F554
:10335000801FCCF1200E32D201EB045112FA0EF292
:10336000BDE8104058BF7047401C38BF5FEA4202BA
:1033700018BF7047002814BF20F0010041F1000180
:103380004FEA410313F5001F38BF7047A1F1C04158
:1033900000F08EB9012A43EB0302ACF1200CDCF102
:1033A0001F0E32BF4FF0000E23FA0CF310EB030098
:1033B00041EB0451B4EB115FD0D0A1EB045101F506
:1033C000801149085FEA300001EB04510ED350F13F
:1033D000000038BF12FA0EFE08D1BDE81040C9E760
:1033E000401C38BF5FEA4202CAD1C3E7BDE81040C3
:1033F0004FEA410313F5001F38BF7047A1F1C041E8
:1034000000F056B99EEA445F08D011EA5E0FBDE8AD
:10341000104004BF01F0004100207047BDE810409B
:1034200070B500F0F7F800BF64FBBE3E0000E0FF9F
:10343000491058BFC1F140415B1058BFC3F1404330
:103440008B42EFF30080704751EA030C17D41CF550
:10345000801F58BFBCF5801F00F10680994218BF3D
:10346000704708BF9042704707D711F5801F58BFBB
:1034700013F5801F19D499427047894270471CF593
:10348000801F08D5BCF5801FF7D58B4218BF704749
:1034900008BF824270474FF4001C1CEB410F38BF3D
:1034A0001CEB430F01D28B42704770B500F0B2F8AD
:1034B000922449004FF000514FF08053FFF7B8BFFE
:1034C000DFF848C170B51CEA111E1EBF1CEA1315B7
:1034D0009EEA0C0F95EA0C0F00F06F8081EA03045E
:1034E00023EA4C134EEAD47E21EA4C1141F48011B8
:1034F00043F48013AE44A1FB024CA0FB0365AEF184
:103500007F7E361955EB0C05A1FB034C4CF10003F3
:10351000A0FB021C16EB0C06654153F100030942A7
:1035200018BF46F0010613F4007F0BD14FEA0331B8
:103530004FEA0530340341EA155140EA16506FF066
:1035400003020AE04FEAC3214FEAC520F40241EA30
:10355000555140EA56506FF0020202EB2E4201EB49
:10356000025585EACE710AD05FEA440C18BF24F0F8
:10357000004450F1000041F1000120EAD47040F213
:10358000FE7C624500D270BDA84214BF4FF080445B
:103590004FF04044002E08BF0024BEF1806FA8BF4A
:1035A000A1F1C041BDE8704080F282804FF0000080
:1035B00001F1C04101F0004170479EEA0C0F0CEA96
:1035C000131518BF95EA0C0F06D04FF0000081EAE2
:1035D000030E0EF0004170BD00F01CF88900013EA2
:1035E00000F007B800F009B84FEA430C5FEA5C5CF2
:1035F00008D081EA030100F05BB84FEA410C5FEAB2
:103600005C5CF6D14FF00000014970470000FF07F5
:103610000000F87F0EF1020E2EF0030E5EF8046B30
:10362000364205D4012A43EB030515F5001F12D8D5
:10363000012841EB010C1CF5001F0CD80ED14FEAFC
:10364000D17C15F5001F0CEB4C0C0CF1020C08BFE3
:103650004CEBD37C04E04FF0080C01E04FEAD37C44
:103660000CEB4C0526FA05F606F00706B6F1040C3D
:1036700006D20EEB860CBDE870404CF0010C6047A2
:10368000DFE80CF0090B02024FF000414FF00000A0
:10369000A1F5002170BD19461046012851EB010427
:1036A00018BFD4F5001484BF002001F0004170BDA4
:1036B0000808A0F500114FEA3101704753EA010CE8
:1036C00017D41CF5801F58BFBCF5801F00F1068081
:1036D0008B4218BF704708BF8242704707D713F567
:1036E000801F58BF11F5801F19D48B4270479B4231
:1036F00070471CF5801F08D5BCF5801FF7D599428F
:1037000018BF704708BF904270474FF4001C1CEB75
:10371000430F38BF1CEB410F01D2994270470FB4E1
:103720000CBC03BCFFF7C1BE10B591EA030F48BF44
:1037300083F000433FF5DCAD841A71EB030C07D234
:1037400012198CF0004C43EB0C03001B61EB0C01D5
:10375000DFF8A4E14FEA1154A4EB135C1EEA430F17
:1037600018BF9EEA445F00F0B08023EA6E03524225
:1037700021EA0451C3EB6E0338BF5B1EDCF1200E5F
:1037800025D322FA0CFE10EB0E0043FA0CFE41EB9F
:103790000E01CCF1200E03FA0EFE10EB0E0051F1DB
:1037A0000001CCF1200E29D412FA0EF201EB0451E3
:1037B000BDE8104058BF7047401C1CBFB2F1004F1D
:1037C000704700280CBF491C20F00100704712EB25
:1037D000020E43EB030218BF4FF0010E4EEA420205
:1037E000ACF1200CDCF11E0E54D943FA0CFE10EBA8
:1037F0000E0051F1FF31CCF11E0ED5D50EF1010EA8
:1038000012FA0EFE404141EB010101EB445C5FEA1C
:103810005C5C10D910EBDE7001EB045138BFBEF1D7
:10382000004FBDE8104018BF704700280CBF491C6E
:1038300020F00100704730D24FEAD42C11F500116E
:1038400024F400641BD0B1FA81F20B3AA41AA41E2E
:10385000D2F12003914030FA03F31943904001EB79
:10386000CC71002C01EB0451BDE81040A8BF70479B
:1038700001F1C0414FF0000001F000417047B0FA83
:1038800080F310FA03F100D110BDE41A173C48058B
:10389000C90AE4E701EB045110BD491001EB0451E2
:1038A000BDE810404FEA300002E04FF000017047E1
:1038B0004A0008BF0042F8D0B2F5001F28BF704789
:1038C00001F000414FF0000070479EEA445F07D0CE
:1038D00011EA5E0FBDE8104004BF002100207047D0
:1038E000BDE8104070B5FFF795FE00BF40DFF63E23
:1038F00083F00041104670470000E0FF43004FEAAC
:10390000D30C4FEA3C0C43401FBF40070CF1605101
:1039100013F0FE4F70471CF0006F03D100200CF035
:10392000004170470CF0004343EA507010B540EA84
:10393000CC0000F000F900BF000000924FEA000147
:10394000FFF7B6BE4FF000414FF00000A1F5002197
:103950007047401058BFC0F14040491058BFC1F1F6
:1039600040418142EFF300807047000041000B0EA0
:10397000D3F19E0208D950F400034FEA032323FA3F
:1039800002F048BF4042704710B500F0D4F800BFC5
:1039900049922480002070476FF0004282EA2000A4
:1039A00070470000B0FA80F310FA03F2C3F19D03F0
:1039B0000AD0D90501EB1220530638BF704700F139
:1039C000010008BF20F001007047000050EA010C20
:1039D00000F113801CF5000F58BFBCF5000F01D497
:1039E0008842704707D710F5000F58BF11F5000F38
:1039F00015D488427047894270471CF5000F04D5E2
:103A0000BCF5000FF7D5814270474FF0807C1CEB6E
:103A1000400F38BF1CEB410F01D28142704710B5F7
:103A200000F089F8922449004FF000504FF0805187
:103A3000FFF78FBF4FF47F0C1CEAD0121EBF1CEAA9
:103A4000D11392EA0C0F93EA0C0F00F0478090EA32
:103A5000010F48BF42F480724FF0004C4CEA002046
:103A60004CEA012102EB0302A0FB0113A2F50002C4
:103A7000002918BF43F001035B0028BF4FEA33035E
:103A800042EB22425FEA132C4CEBC2502EBFBCEB40
:103A9000436FB2F57C0F70474FEA036CBCF1004FE7
:103AA00008BF20F00100B2F57C0F38BF70470BD57E
:103AB00082F0FF0212F5803FC8BF704700F1C0409E
:103AC000D8BF00F00040704700F5000C5FEA4C0CD6
:103AD00048BF7047B0F1C04000F073B890EA010FE2
:103AE0000CEAD11348BF42F48072624538BF634587
:103AF00004D280EA010000F00040704710B500F0E9
:103B00001AF800BF8900013E00F007B800F009B8BC
:103B10005FEA410C5FEA1C6C08D080EA010000F00B
:103B200050B85FEA400C5FEA1C6CF6D14FF00040E1
:103B3000A0F5800070470EF1020E2EF0030E5EF825
:103B4000044B244204D44FEA4102B2F17F4F11D812
:103B50004FEA4003B3F17F4F0CD80ED14FEAD07C2F
:103B6000B2F17F4F0CEB4C0C0CF1020C08BF4CEB8C
:103B7000D17C04E04FF0080C01E04FEAD17C0CEB63
:103B80004C0324FA03F404F00704B4F1040C06D245
:103B90000EEB840CBDE810404CF0010C6047DFE8F0
:103BA0000CF0070802024FF00040A0F5800010BDA5
:103BB0000846420018BFD2F1807288BF00F0004072
:103BC00010BDFF2141EAD050C005704751EA000CFA
:103BD00000F113801CF5000F58BFBCF5000F01D495
:103BE0008142704707D711F5000F58BF10F5000F3D
:103BF00015D481427047894270471CF5000F04D5E7
:103C0000BCF5000FF7D5884270474FF0807C1CEB65
:103C1000410F38BF1CEB400F01D28842704780EA49
:103C2000010081EA000180EA0100FFF7F8BEFCF71D
:103C30004EBD000000000000000000000000000079
:103C40000000000000F80000000000000033300019
:103C5000000000100C06100C060000000000000020
:103C6000000040C07840C0784000043F04043F0496
:103C70000400007088FC08300000001820FF211E9E
:103C80000000F008F000E018000000211C031E21D5
:103C90001E0000F00888700000001E212324192750
:103CA000211010160E0000000000000000000000AF
:103CB0000000000000E018040200000000071820C7
:103CC000400000020418E000000000402018070037
:103CD0000000404080F0804040000202010F0102DD
:103CE0000200000000F0000000000101011F0101BE
:103CF0000100000000000000000080B07000000023
:103D000000000000000000000000000101010101AE
:103D10000101000000000000000000303000000041
:103D20000000000000008060180400601806010018
:103D3000000000E010080810E000000F1020201024
:103D40000F00001010F8000000000020203F20208D
:103D50000000007008080888700000302824222124
:103D600030000030088888483000001820202011DA
:103D70000E000000C02010F8000000070424243FBB
:103D8000240000F808888808080000192120201164
:103D90000E0000E0108888180000000F112020118C
:103DA0000E0000380808C83808000000003F000076
:103DB00000000070880808887000001C2221212261
:103DC0001C0000E010080810E00000003122221161
:103DD0000F00000000C0C0000000000000303000F4
:103DE0000000000000800000000000008060000073
:103DF00000000000804020100800000102040810AC
:103E000020004040404040404000040404040404BA
:103E10000400000810204080000000201008040268
:103E20000100007048080808F0000000003036016A
:103E30000000C030C828E810E00007182724231429
:103E40000B000000C038E0000000203C23020227E5
:103E5000382008F8888888700000203F2020201132
:103E60000E00C0300808080838000718202020106D
:103E7000080008F808080810E000203F2020201063
:103E80000F0008F88888E8081000203F2020232031
:103E9000180008F88888E8081000203F2000030078
:103EA0000000C03008080838000007182020221E33
:103EB000020008F808000008F808203F210101214D
:103EC0003F20000808F8080800000020203F2020BC
:103ED000000000000808F8080800C08080807F000B
:103EE000000008F888C028180800203F2001263864
:103EF000200008F8080000000000203F20202020BB
:103F0000300008F8F800F8F80800203F003F003FB4
:103F1000200008F830C00008F808203F20000718EB
:103F20003F00E01008080810E0000F1020202010CB
:103F30000F0008F808080808F000203F21010101DF
:103F40000000E01008080810E0000F182424385082
:103F50004F0008F8888888887000203F2000030CF4
:103F600030200070880808083800003820212122FD
:103F70001C00180808F8080818000000203F20005E
:103F8000000008F808000008F808001F2020202082
:103F90001F000878880000C83808000007380E01A4
:103FA0000000F80800F80008F800033C0700073C90
:103FB0000300081868808068180820302C03032C40
:103FC00030200838C800C83808000000203F200012
:103FD000000010080808C8380800203826212020D2
:103FE0001800000000FE020202000000007F4040B6
:103FF0004000000C30C00000000000000001063846
:10400000C00000020202FE000000004040407F00AD
:104010000000000004020202040000000000000092
:104020000000000000000000000080808080808090
:104030008080000202040000000000000000000078
:1040400000000000808080800000001924222222CD
:104050003F2008F8008080000000003F1120201160
:104060000E000000008080800000000E1120202043
:104070001100000000808088F800000E1120201040
:104080003F200000808080800000001F222222222A
:104090001300008080F0888888180020203F2020AE
:1040A00000000000808080808000006B94949493D6
:1040B000600008F8008080800000203F2100002080
:1040C0003F2000809898000000000020203F202022
:1040D0000000000000809898000000C08080807F71
:1040E000000008F8000080808000203F24022D306E
:1040F0002000000808F8000000000020203F2020D9
:1041000000008080808080808000203F20003F2051
:10411000003F8080008080800000203F2100002040
:104120003F200000808080800000001F2020202091
:104130001F00808000808000000080FFA1202011EF
:104140000E000000008080808000000E112020A062
:10415000FF80808080008080800020203F21200020
:10416000010000008080808080000033242424240B
:104170001900008080E0808000000000001F2020E7
:1041800000008080000000808000001F20202010A0
:104190003F20808080000080808000010E30080673
:1041A000010080800080008080800F300C030C3084
:1041B0000F0000808000808080000020312E0E31B2
:1041C0002000808080000080808080818E701806B2
:1041D000010000808080808080000021302C22211E
:1041E000300000000000807C020200000000003F60
:1041F000404000000000FF00000000000000FF0041
:1042000000000002027C800000000040403F0000EF
:10421000000000060101020204040000000000008A
:10422000000004000008000000000000000200017F
:104230000000100002400000000000A0000000008C
:1042400005400000000000C8000000000C40000015
:104250000000409C00000000194000000020BCBE8F
:104260000000000034400000BFC91B8E00000004A5
:10427000B5400000504BCFD06607E2CF01000000F0
:104280006C4100003E8251AADFEEA734010000001D
:10429000D9420000DCB5A0E23A301F97FFFFFFFFD4
:1042A000B4450000FD25A0C8E9A3C14FFFFFFFFFF3
:1042B000FF3F00000000008000000000FF3F000002
:1042C00000000080000000000443000800000020FF
:1042D0004400000028010008484300084400002072
:1042E0006C060000440100081C00000043000000B0
:1042F000F8FFFFFF0C0000000E0000000F000000A0
:104300002E0000000000000001020304010203046B
:10431000060708090204060800000000000000006B
:10432000000000000000000000000000000000008D
:10433000000000000000000000000000000000007D
:08434000000000000000000075
:04000005080000ED02
:00000001FF
